:020000040000FA
:0424000002248332FD
:01240B00329E
:012413003296
:01241B00328E
:012423003286
:01242B00327E
:012433003276
:01243B00326E
:012443003266
:01244B00325E
:012453003256
:01245B00324E
:012463003246
:01246B00323E
:012473003236
:05247B000224F90257E4
:20248000D4E4737581241258C4E582600302247E7900E94400601B7A00905D6778207593CC
:2024A000F1E493F2A308B800020593D9F4DAF27593FFE478FFF6D8FD7800E84400600A7978
:2024C000007593F0E4F309D8FC7820E84401600C790290F000E4F0A3D8FCD9FA02247EAFB3
:2024E000828F2322AF82AEA58F051FED600AEEB5A50280FAAEA580F022758A00329023FC6F
:20250000E493FEA3E493FFC007C00674C8C0E07458C0E07480C0E08E828F83122481158155
:2025200015811581D006D00775820022758200229023FCE493FEA3E493FFC007C00674D280
:20254000C0E07458C0E07480C0E08E828F83122481158115811581D006D007E4F531F53262
:20256000F582229023FCE493FEA3E493FF9023FEE493FCA3E493FDC007C0068C828D83128D
:202580002481AC82AD83ABF0FAD006D007C007C006C004C005C003C00274DCC0E07458C0DF
:2025A000E07480C0E08E828F83122481E58124F9F581D006D007758200229023FCE493FEEB
:2025C000A3E493FFC007C00674F2C0E07458C0E07480C0E08E828F83122481158115811535
:2025E00081D006D0077582002275820022758200229023FCE493FEA3E493FFC007C0067424
:20260000FDC0E07458C0E07480C0E08E828F83122481158115811581D006D00775820022BC
:20262000AF82D29643FE807E08EF30E704D2978002C297D291C291EF2FFFDEED227F00AE7F
:20264000FE747F5EF5FEC2967E08EF2FFFD291309703430701C291DEF18F82221226200216
:20266000263D75826812265CE582F50912263DE582F50885088285098322AC34E535C313B4
:20268000CC13CCC313CC13CCFDE536030354C04DE5360303543F8C821227ED758200227519
:2026A000821412265C7582021224DFE52370FC75823412265CE58230E7F57582002275822C
:2026C0002812265CE582F50B12263DE582F50A850A82850B8322AE82AF83758257C007C07F
:2026E00006122620758202122620D006D0078F82C007C006122620D006D0078E8212262073
:2027000002263DAF82758257C007122620758275122620D0078F82122620850C8212262047
:2027200002263DAF82758256C0071226207582E5122620D0078F8212262002263DAE82AFDF
:2027400083758257C007C006122620758290122620D006D0078F82C007C006122620D0066B
:20276000D0078E8212262002263D7582551226207582A312262002263D75825512262075A1
:2027800082E012262002263DAF82758256C007122620758274122620D0078F821226201268
:2027A000263D7582551226207582F012262002263D85338285348312273DAE31AF32EE24B0
:2027C000FFFCEF34FFFD8C318D32EE4F601EAE2FAF3074012EFCE43FFD8C2F8D308E828F16
:2027E00083E0F58212278812276A80CE22AF827582AEC007122723E582D00720E7F1758205
:20280000ADEF2FF50C1227037582AE750C0112270312263D7582AE122723E58220E7F52252
:20282000E5AE20E7FB75AE0290F000E0F5AFA3E0F5AFA3E5AE20E6FB1CBCFF011DEC4D70DE
:20284000EAA52222C291D29243FE02C297D29643FE80D2817582011224E4C2917582011267
:2028600024E4D2917582011224E4C2917582011224E4D2917582011224E4C29175820112A4
:2028800024E4C2817582011224E49023FCE493FEA3E493FFC007C006122662AC82AD83D049
:2028A00006D007C007C006C004C005742CC0E07459C0E07480C0E08E828F83122481E581A5
:2028C00024FBF581D006D0077533807534FFE4F535F5367E207F288E2F8F3075312475327B
:2028E000001227B1758200227582002275310075320485338285348312273DAE31AF32EED1
:2029000024FFFCEF34FFFD8C318D32EE4F6027AE2FAF3074012EFCE43FFD8C2F8D30C0077F
:20292000C006122779AD82D006D0078E828F83EDF012276A80C575310075320475820022F2
:2029400002269FAF3374015FF50D90F00012273DE50D60097582FF12278812276A7D007E52
:2029600000C3ED9531EE9532502BAB2FAC3074012BFAE43CFF8A2F8F308B828C83E0F58257
:20298000C006C00512278812276AD005D0060DBD00CF0E80CCE50D600D74012531FEE43569
:2029A00032FF8E318F32E531FF30E0137582FF12278874012531FEE43532FF8E318F32E5FF
:2029C00036C313FFE53513FEE53413FDE53313FC8C338D348E358F367582AD85340C1227C7
:2029E000037582AC85330C122703AE31E532C313CE13CEFF8E318F3285310C758204122741
:202A00000385320C75820512270390F00012273D90FF801226D675824C12265C7582341291
:202A2000265CE58230E5F5758200227582002275820022D281AFFE74FD5FF5FEC292AFFE94
:202A4000747F5FF5FEC296C291C2977582641224E4C28175820022AE827F00E5396207E541
:202A60003A62068F398E3A7F00E53A30E711E53925E0FDE53A33FE6305216306108009E57E
:202A80003925E0FDE53A33FE8D398E3A0FBF080040D722AF82AE8674FD5EF5868FC1E586A4
:202AA00030E1FB22AF82AE8674FD5EF5868FC18F82122A57E58630E1FBE53124FFFEE53280
:202AC00034FFFF8E318F3222AD82AE83AFF0758202C007C006C0051224DFD005D006D00741
:202AE000E52DB52C02801EE52DFC04F52DEC2400F582E434F0F583E08D828E838FF012581F
:202B00003B75820022E52370D77582FF22AF827539FF753AFF758280C007122A93AD318DF6
:202B200082122A93AE328E82122A93D0078F82C007122AA4D007E4BF100104FE7037BF11F2
:202B4000028055BF1202802DBF1302804BBF15028046BF1602801EBF17028019BF180280A4
:202B600014BF19028032BF1A02802DBF1B028005BF52218023AA338A82C007C006122AA4A1
:202B8000AD348D82122AA4AD358D82122AA4D006D00780047582FF22EE7012BF1102800D7C
:202BA000BF16028008BF18028003BF1B25E5314532601FAD2FAE3074012DFBE43EFC8B2F20
:202BC0008C308D828E83E0F582C007122AA4D00780DBAD398D82C007122A93AE3A8E821254
:202BE0002A93D00790000E75F040C007122AC8E582D0077004E50E60047582FF22BF5204FD
:202C00007582002290000E75F040122AC8E58270077480B50E0280047582FF2290000E750E
:202C2000F040122AC8E58260047582FF22AE0E7F008E318F3290000E75F040122AC8E58214
:202C400060047582FF22AF0E7E00E5314206E53242078E318F327539FF753AFF752F00750B
:202C600030F490000E75F040122AC8E58260047582FF22850E82122A57E53124FFFEE53210
:202C800034FFFF8E318F32743AB50E028007743BB50E748043AE31AF32EE24FFFCEF34FFF0
:202CA000FD8C318D32EE4F606290000E75F040122AC8E58260047582FF22850E82122A57CA
:202CC000AE2FAF3074012EFCE43FFD8C2F8D308E828F83E50EF080BD90000E75F040122A40
:202CE000C8E58260047582FF22850E82122A57AE2FAF3074012EFCE43FFD8C2F8D308E827E
:202D00008F83E50EF080047582FF2290000E75F040122AC8E5827010AE39FFAC0EFDECB5B6
:202D20000606EDB5070280047582FF2290000E75F040122AC8E5827010AE3AFFAC0EFDEC88
:202D4000B50606EDB5070280047582FF2275820022D281C291D29243FE027582041224DFF5
:202D60009023FCE493FEA3E493FFC007C0067456C0E07459C0E07480C0E08E828F831224C6
:202D800081158115811581D006D007E52370FC7582281224E4D280750F007F00EF2418FD19
:202DA000E434F1FEEF2408F582E434F1F583E0FC8D828E83F00F8F0FBF080040DF8F0F904C
:202DC000F1087480F07425A3F0E4A3F0E4A3F090F10E7408F090F10D7402F090F10CE4F0AC
:202DE0009023F6E493FEA3E493FFC007C0068E828F83122481D006D007C293752D00752CF1
:202E000000C2E9C28BD2AAD2917582281224E4C2917582281224E4D2917582281224E4C2B8
:202E2000817582281224E4C2917582281224E47582021224DFE52370FCF52DF52C90000FE8
:202E400075F040122AC8E582702F9023FCE493FEA3E493FFC007C006746CC0E07459C0E00C
:202E60007480C0E08E828F83122481158115811581D006D007758201229023FCE493FEA395
:202E8000E493FFC007C0067477C0E07459C0E07480C0E08E828F8312248115811581158108
:202EA000D006D007753101753200758215122B0DE582600475820122752F007530F4750F1B
:202EC000207F20AD2FAE3074012DFBE43EFC8B2F8C308D828E8374FFF01FEFF50F70E48FD0
:202EE0000FF52F7530F4753121753200758211122B0DE58260047582022275310175320012
:202F0000758213122B0DE582600475820122753101753200752F007530F4758219122B0D93
:202F2000E5826004758203229023FCE493FEA3E493FFC007C0067481C0E07459C0E07480EA
:202F4000C0E08E828F83122481158115811581D006D007752F007530F4750F047F0490238E
:202F6000FCE493F510A3E493F511AB2FAC3074012BFAE43CFE8A2F8E308B828C83E0FB7E5F
:202F800000C007C003C0067488C0E07459C0E07480C0E0851082851183122481E58124FBD8
:202FA000F581D0071FEFF50F70B48F0F9023FCE493FEA3E493FFC007C006748EC0E07459B7
:202FC000C0E07480C0E08E828F83122481158115811581D006D007E4F53375341AF535F587
:202FE00036752F007530F4753108753200AE2FAF3074012EFCE43FFD8C2F8D30AC318E8229
:203000008F83ECF0852F82853083E532F0752F007530F4753106753200758218122B0DE57F
:2030200082600475820122752F047530F49023FCE493FEA3E493FFC007C0067490C0E0746D
:2030400059C0E07480C0E08E828F83122481158115811581D006D007750F047F049023FCE1
:20306000E493F510A3E493F511AB2FAC3074012BFAE43CFE8A2F8E308B828C83E0FB7E005A
:20308000C007C003C006749BC0E07459C0E07480C0E0851082851183122481E58124FBF5CF
:2030A00081D0071FEFF50F70B48F0F9023FCE493FEA3E493FFC007C006748EC0E07459C0EB
:2030C000E07480C0E08E828F83122481158115811581D006D0077582002275820022752F5E
:2030E000007530F4753100753201AE2FAF3074012EFCE43FFD8C2F8D30AC318E828F83EC0B
:20310000F0852F82853083E532F0752F007530F4753106753200758218122B0DE582600496
:2031200075820122753100753201758200229023FEE493FEA3E493FF8E828F83122481AE48
:2031400082AF83ADF0FC8E338F348D358C369023FCE493FEA3E493FFC007C006C033C03469
:20316000C035C03674A0C0E07459C0E07480C0E08E828F83122481E58124F9F581D006D037
:2031800007753104753200758212122B0DE5826004758201227582002274042531FEE435A1
:2031A00032FF8E318F32758210122B0DE582600475820122758200227582002275820022DD
:2031C00075335C753401E4F535F536F52F7530F4753105753200852F82853083E4F07582C0
:2031E00010122B0DAFFE74FD5FF5FEC292C2AAD2937F00EF2408FDE434F1FEEF2418F582A0
:20320000E434F1F583E0FC8D828E83F00FBF080040E175820022AF827E027D04EF5E60034F
:20322000630720EE2EFEDDF4D29643FE807E017D08EF5E6004D2978002C297C291D291EE53
:203240002EFEDDEDADFE747F5DF5FEC296C291D2917E007D03EEC313FEC291309703430656
:2032600004D291DDF08F0574DF5DFFE52530E5027E01BE01028003023323EF30E25BE4F566
:2032800037F538F539F53A752120E53AC313FDE53913FCE53813FBE53713FA8A378B388C34
:2032A000398D3AC291309716AA37AB38AC397480453AFD8A378B388C398D3A630720D291C8
:2032C000D521C7C291309703630720D291EF20E5047E01805E7E05805AC291D291D2964314
:2032E000FE80752120E53730E007D2976307208002C297E53AC313FDE53913FCE53813FB4F
:20330000E53713FA8A378B388C398D3AC291D291D521D2EF30E504D2978002C297C291D285
:20332000918010BE02047E028009BE04047E0380027E04E5FE20E704C291D291D29643FE07
:2033400080C2977F08C291D291DFFA8E8222AF2574DF5FF525E4F537F538F539F53A75821B
:2033600091123216AF82BF010280038F8222753712E4F538F539753A22758283123216AF68
:2033800082BF010280038F822274104525F525753710753820753902753A4075828B12323D
:2033A00016AF82BF010280038F8222753780E4F538F539F53A75829B123216AF82BF0102D5
:2033C00080038F822275370C7538ED753900753AE075828B123216AF82BF010280038F8245
:2033E000227537047538007539FA753A0575829B123216AF82BF010280038F822275820066
:2034000022D291C297D29243FE02D29643FE807582021224DFE52370FCD29643FE80D297EA
:203420007F40C291D291DFFA75379E7538E77F10E53730E004D2978002C297C291D291ADFA
:2034400037E538C313CD13CDFE8D378E38DFE1D2977F40C291D291DFFAC2977F40C291D259
:2034600091DFFA758285123216AF82BF010280038F82229023FCE493FDA3E493FEC006C0A2
:2034800005C037C038C039C03A74D1C0E07459C0E07480C0E08D828E83122481E58124F905
:2034A000F581D005D006E4F537F538F539753A54758289123216AF82BF010280038F8222FA
:2034C00075828D123216AF82BF010280038F822274F4B53A028004758215227537F0E4F5E5
:2034E00038F539F53A758291123216AF82BF010280038F822275829F123216AF82BF0102C9
:2035000080038F822275829D123216AF82BF010280038F82229023FCE493FDA3E493FEC063
:2035200006C005C037C038C039C03A74DFC0E07459C0E07480C0E08D828E83122481E581AD
:2035400024F9F581D005D006E4F537F538F539F53A758291123216AF82BF010280038F822A
:2035600022753712E4F538F539753A22758283123216AF82BF010280038F822274104525F0
:20358000F5257537F07538ED753900753AE075828B123216AF82BF010280038F822275376D
:2035A0000375380075395F753AA075829B123216AF82BF010280038F82227537F07538ED34
:2035C000753900753AE075828B123216AF82BF010280038F822275829F123216AF82BF0148
:2035E0000280038F822275829D123216AF82BF010280038F8222E53920E1047582112275BA
:203600003700753820753904753AE075828B123216AF82BF010280038F822275829F123206
:2036200016AF82BF010280038F822275829D123216AF82BF010280038F82229023FCE4930E
:20364000FDA3E493FEC006C005C037C038C039C03A74EDC0E07459C0E07480C0E08D828E49
:2036600083122481E58124F9F581D005D006753704753820753902753A4075828B12321674
:20368000AF82BF010280038F8222753723753801753967753A4575829B123216AF82BF011E
:2036A0000280038F8222753704753820753902753A4075828B123216AF82BF010280038F55
:2036C00082227537AB7538897539EF753ACD75829B123216AF82BF010280038F8222758214
:2036E000002275820022E52520E428AF2574DF5FF525753712E4F538F539753A2275828371
:20370000123216AF82BF010280038F822274104525F525AB33AC34AD35AE368B378C388D07
:20372000398E3A75828B123216AF82BF010280038F822275829F123216AF82BF010280039D
:203740008F8222753100753204E5314532604275829F123216AF82BF010280038F82228598
:203760002F82853083E537F0E538A3F0E539A3F0E53AA3F07404252FFEE43530FF8E2F8FE3
:2037800030E53124FCFEE53234FFFF8E318F3280B8753100753204758200227537107538F1
:2037A00020753902753A4075828B123216AF82BF010280038F8222753704753802E4F53954
:2037C000F53A75829B123216AF82BF010280038F8222753710753820753902753A40758206
:2037E0008B123216AF82BF010280038F8222753744753802E4F539F53A75829B123216AFC0
:2038000082BF010280038F82227582011224DFE52370FC75370C753820753902753A407594
:20382000828B123216AF82BF010280038F822275829F123216AF82BF010280038F8222756A
:20384000829D123216AF82BF010280038F8222E53720E0B575820022E52530E45F75371023
:20386000753820753902753A4075828B123216AF82BF010280038F8222753701753802E417
:20388000F539F53A75829B123216AF82BF010280038F8222753721E4F538F539753A2275E4
:2038A0008283123216AF82BF010280038F8222AE2574EF5EF52574204525F525AB33AC347C
:2038C000AD35AE368B378C388D398E3A75828B123216AF82BF010280038F8222E5314532FC
:2038E000605D852F82853083E0FBA3E0FCA3E0FDA3E0FE8B378C388D398E3A75829B123258
:2039000016AF82BF010280038F8222C374049531E49532501DE53124FCFEE53234FFFF8EC4
:20392000318F327404252FFEE43530FF8E2F8F308005E4F531F5327582011224E4809D75AD
:20394000820022758200227582002212334EAF2574EF5FF525C291C2977582021224DFE5AF
:203960002370FCAFFE74FD5FF5FEC292AFFE747F5FF5FEC296758200229023FCE493FEA3CA
:20398000E493FFC007C006741BC0E0745AC0E07480C0E08E828F8312248115811581158158
:2039A000D006D0079023FCE493FEA3E493FFC007C0067427C0E0745AC0E07480C0E08E8243
:2039C0008F83122481158115811581D006D007AFFE747F5FF5FEC29675E40175E20075122D
:2039E00000AF2574F75FF525E4F531F532F537F538F539F53AE4F533F534F5E4F5E275824C
:203A0000091224DFAF2574F75FF525AF8A747F5FF58AE523605AE58A30E72CE53145327055
:203A20000575E409800685E23385E33474012531FEE43532FF8E318F32AF8A747F5FF58AC6
:203A4000AF2574F75FF525E5E430E4C6AC37AD3874012539FEE4353AFF8C378D388E398F42
:203A60003AAFE474EF5FF5E474084525F52580A2AC33AD34E4FEFFEC2537FCED3538FDEE92
:203A80003539FEEF353AFF8C378D388E398F3AE52530E316AC37AD38E53924FFFEE53A34B8
:203AA000FFFF8C378D388E398F3AC374019531E495324003023BDBE53124FFFEE53234FF6B
:203AC000FF8E318F328531218532227523007524008537828538838539F0E53A1257D6AC50
:203AE00082AD83AEF0FF8C378D388E398F3A853721853822853923853A249071B075F00BBE
:203B0000E41257D6AC82AD83AEF0FF9023FCE493FAA3E493FBC007C006C005C004C003C0B9
:203B200002C004C005C006C0077431C0E0745AC0E07480C0E08A828B83122481E58124F9D2
:203B4000F581D002D003D004D005D006D0078C218D228E238F248537828538838539F0E523
:203B60003A12585685821385831485F015F51674B0C39513F52174719514F522740B95150D
:203B8000F523E49516F5249003E8E4F5F0125856853721853822853923853A241257D6ACF6
:203BA00082AD83AEF0FF9023FCE493FAA3E493FBC003C002C004C005C006C0077436C0E09C
:203BC000745AC0E07480C0E08A828B83122481E58124F9F581D002D003802B9023FCE493A3
:203BE000FEA3E493FFC007C0067440C0E0745AC0E07480C0E08E828F8312248115811581C6
:203C00001581D006D0079023F2E493FEA3E493FFC007C006123C19800BC006C00790001280
:203C200075F04022D006D0077451B5120280030239E8023C3575E400AF2574F75FF52575E3
:203C400082FF22AF82D29643FE807E06EF30E004D2978002C297D2910000000000C29100E6
:203C600000000000EFC313FFDEE27F1800DFFD22AF82D29643FE807E08EF30E004D297805F
:203C800002C297D2910000000000C2910000000000EFC313FFDEE222AE82E583543FCE254F
:203CA000E0CE33FF8E82C007C006123C70D006D0078F82023C707E007F00758204C007C0DE
:203CC00006123C43D006D007ADFE747F5DF5FEC2967D10EFC313CE13CEFFD29100000000F7
:203CE00000309703430780C2910000000000DDE3EFC313CE13CEFF53073F8E828F8322E5E8
:203D00003330E02C9023FCE493FEA3E493FFC007C006746AC0E0745AC0E07480C0E08E82DA
:203D20008F83122481158115811581D006D00722E53545366029E52530E50BC3E533952C45
:203D4000E534952D503B758200123C43E4F52CF52D74204525F525903FFF123C988022E5FB
:203D60002520E50BC3E533952CE534952D5012758216123C43E4F52CF52DAF2574DF5FF5F5
:203D800025C3E52C9533E52D95345013758206123C437402252CF52CE4352DF52D80E222C2
:203DA000C2910000000000D29243FE02C297D29643FE80D28175820C1224E4758250123C82
:203DC00070758248123C70758243123C7075824D123C70D2910000000000C29100000000C6
:203DE00000758200123C43903FFF123C98E4F52CF52D74204525F5259023FCE493FEA3E49D
:203E000093FFC007C006123CB6AC82AD83D006D007C007C006C004C005747EC0E0745AC03E
:203E2000E07480C0E08E828F83122481E58124FBF581D006D007758206123C439023FCE46C
:203E400093FEA3E493FFC007C006123CB6AC82AD83D006D007C007C006C004C0057489C049
:203E6000E0745AC0E07480C0E08E828F83122481E58124FBF581D006D007758206123C4351
:203E80009023FCE493FEA3E493FFC007C006123CB6AC82AD83D006D007C007C006C004C038
:203EA000057494C0E0745AC0E07480C0E08E828F83122481E58124FBF581D006D0077582DB
:203EC00006123C439023FCE493FEA3E493FFC007C006123CB6AC82AD83D006D007C007C0EB
:203EE00006C004C005749FC0E0745AC0E07480C0E08E828F83122481E58124FBF581D006D4
:203F0000D007758206123C43758206123C43758206123C439023FCE493FEA3E493FFC0071C
:203F2000C006123CB6AC82AD83D006D007C007C006C004C00574AAC0E0745AC0E07480C0B6
:203F4000E08E828F83122481E58124FBF581D006D007758206123C439023FCE493FEA3E4C7
:203F600093FFC007C006123CB6AC82AD83D006D007C007C006C004C00574B7C0E0745AC0A4
:203F8000E07480C0E08E828F83122481E58124FBF581D006D007758206123C439023FCE40B
:203FA00093FEA3E493FFC007C006123CB6AC82AD83D006D007C007C006C004C00574C6C0AB
:203FC000E0745AC0E07480C0E08E828F83122481E58124FBF581D006D007758206123C43F0
:203FE0009023FCE493FEA3E493FFC007C006123CB6AC82AD83D006D007C007C006C004C0D7
:204000000574D5C0E0745AC0E07480C0E08E828F83122481E58124FBF581D006D007758238
:2040200006123C439023FCE493FEA3E493FFC007C006123CB6AC82AD83D006D007C007C089
:2040400006C004C00574E0C0E0745AC0E07480C0E08E828F83122481E58124FBF581D00631
:20406000D007758216123C43E4F52CF52DAF2574DF5FF5257582002275820022752F0075B9
:2040800030F4E4F531F532C3E5319420E53294005054123CFF123CB6AE82AF83AC2FAD3084
:2040A00074012CFAE43DFB8A2F8B308E028C828D83EAF0AC2FAD3074012CFAE43DFB8A2F25
:2040C0008B308F068C828D83EEF074022533FEE43534FF8E338F3474022531FEE43532FFE4
:2040E0008E318F3280A1E53324E0FEE53434FFFF8E338F34752F007530F4758200227582E9
:2041000009123C437582C81224E475820022C3E5319402E532940050030241FCAE2FAF30AB
:2041200074012EFCE43FFD8C2F8D308E828F83E0FE7F00AC2FAD3074012CFAE43DFB8A2FA1
:204140008B308C828D83E0FDE44206ED4207E53124FEFCE53234FFFD8C318D32E5354536BB
:204160006072758200C007C006123C43D006D007E4F52CF52D74204525F5258E828F83C08A
:2041800007C006123C98D006D007E533B52C07E534B52D02801B758206C007C006123C430C
:2041A000D006D0077402252CF52CE4352DF52D80D9758202C007C006123C43D006D0078E57
:2041C000828F83123C98758208123C437582C81224E48018C007C006123CFF758202123C43
:2041E00043D006D0078E828F83123C9874022533FEE43534FF8E338F3402410EE535453645
:20420000700C758208123C437582641224E4853182227582002275820022AF2574DF5FF516
:2042200025AFFE74FD5FF5FEC292AFFE747F5FF5FEC296C2817582201224E475820022902E
:2042400023FCE493FEA3E493FFC007C0067418C0E0745BC0E07480C0E08E828F831224811C
:20426000158115811581D006D00775E20075DA1B75DBB775E40EAFE474EF5FF5E4AFFE7451
:20428000FD5FF5FEC292AFFE747F5FF5FEC296E4F539F53AF537F538F58A74104525F52510
:2042A000E52520E403024354E58A30E11074012537FEE43538FF8E378F38638A02E58A308B
:2042C000E71074012539FEE4353AFF8E398F3A638A80E5E430E4C9AFE474EF5FF5E4902340
:2042E000FCE493FEA3E493FFC007C006C039C03AC037C0387433C0E0745BC0E07480C0E07B
:204300008E828F83122481E58124F9F581D006D007E4F539F53AF537F5389023F2E493FE6A
:20432000A3E493FFC00712432B800BC006C00790001775F04022AE82D007EE70030242A04B
:204340007411B5170280030242A0AF2574EF5FF5250242A09023FCE493FEA3E493FFC0070B
:20436000C006743AC0E0745BC0E07480C0E08E828F83122481158115811581D006D0077569
:2043800082FF2275820022AF82E52530E307EF653AF53A8005EF6539F53974086525F525EF
:2043A00022AF82AE8674FD5EF5868FC18F82124387E58630E1FB22AD82AE83AFF07582045C
:2043C000C007C006C0051224DFD005D006D007E523602BE52DB52C0280F5E52DFC04F52DC3
:2043E000EC2400F582E434F0F583E0FC8D828E838FF012583B8C821243877582002275829C
:20440000FF22AF82758280C0071243A1D00790001875F040C0071243B7E582D007700774F6
:2044200090B5180280047582FF22E4F539F53AAE2574F75EF525758280C0071243A1D0077F
:204440008F82C0071243A1AE3174042EF5821243A1AE3174042EF5821243A1D007E4BF2010
:204460000104FE6003024538AA338A82C007C0061243A1AD348D821243A1D006D007BF1089
:2044800002802BBF12028026BF14028037BF16028048BF18028059BF1A02806ABF1C0280F7
:2044A00065BF1E028060BF21028071024534853182C007C0061243A17582001243A1D0060C
:2044C000D0078074758280C007C0061243A17582001243A1D006D007805E758202C007C01F
:2044E000061243A17582A51243A1D006D0078048758206C007C0061243A17582A51243A1A7
:20450000D006D0078032758200C007C0061243A17582001243A1D006D007801CAA338A82A3
:20452000C007C0061243A1AD348D821243A1D006D00780047582FF22AC31AD32EC24FFFA04
:20454000ED34FFFB8A318B32EC4D6023AC2FAD3074012CFAE43DFB8A2F8B308C828D83E02B
:20456000F582C007C0061243A1D006D00780C9E539F4F582C007C0061243A1E53AF4F582B5
:204580001243A1D006D007BF10028029BF12028024BF1402803FBF1602801ABF1802801514
:2045A000BF1A028010BF1C02800BBF1E028026EE7003BF211C90001875F0401243B7E58286
:2045C00070077490B5180280047582FF22758200227582FF22E4F539F53AAF2574F75FF5F0
:2045E00025752F007530F490001875F0401243B7E58270077480B5180280047582FF229033
:20460000001875F0401243B7E58260047582FF2290001875F0401243B7E58260047582FFD4
:2046200022AE187F008E318F3285183790001875F0401243B7E5827007E537B51802800419
:204640007582FF22E537FF14F537EF602990001875F0401243B7E58260047582FF22AE2F56
:20466000AF3074012EFCE43FFD8C2F8D308E828F83E518F080CE90001875F0401243B7E589
:2046800082700774FFB5390280047582FF2290001875F0401243B7E582700774FFB53A0287
:2046A00080047582FF2275820022D2817582281224E4D297D29643FE80C291D29243FE022D
:2046C0007582281224E4D2807519007F00EF2418FDE434F1FEEF2408F582E434F1F583E020
:2046E000FC8D828E83F00F8F19BF080040DF8F1990F1087480F07425A3F0E4A3F0E4A3F0E2
:2047000090F10E7408F090F10D7402F090F10CE4F09023F6E493FEA3E493FFC007C0068EF7
:20472000828F83122481D006D007C293752D00752C00C2E9C28BD2AAC297D29175820A12A6
:2047400024E4D297C29175820A1224E4C297D29175820A1224E4D297C29175820A1224E4CC
:20476000C297D29175820A1224E4C28175820A1224E4D297C29175820A1224E47582021222
:2047800024DFE52360030080F9752D00752C0090001975F0401243B7E582702F9023FCE4FC
:2047A00093FEA3E493FFC007C006746CC0E07459C0E07480C0E08E828F83122481158115BD
:2047C000811581D006D007758201229023FCE493FEA3E493FFC007C0067477C0E07459C019
:2047E000E07480C0E08E828F83122481158115811581D006D007E4F531F532F533F534F586
:2048000035F536758218124402E582600475820122752F007530F47519207F20AD2FAE30A8
:2048200074012DFBE43EFC8B2F8C308D828E8374FFF01FEFF51970E48F19F52F7530F4757A
:204840003120753200758210124402E582600475820222752F007530F47533F075340FE4AA
:20486000F535F536F531F532758214124402E582600475820122752F007530F49023FCE47E
:2048800093FEA3E493FF852F82853083A3E0FD7C00852F82853083E0FB7A00C007C006C0F4
:2048A00005C004C003C0027426C0E0745CC0E07480C0E08E828F83122481E58124F9F5819A
:2048C000D006D0079023FCE493FEA3E493FF740B252FF582E43530F583E0FD7C00740A25E7
:2048E0002FF582E43530F583E0FB7A00C007C006C005C004C003C002743AC0E0745CC0E0A3
:204900007480C0E08E828F83122481E58124F9F581D006D00775332275340CE4F535F536CC
:20492000F531F5329023FCE493FEA3E493FFC007C006744BC0E0745CC0E07480C0E08E82ED
:204940008F83122481158115811581D006D00775821A124402E582600475820422752F002A
:204960007530F4752F007530F47519207F20AD2FAE3074012DFBE43EFC8B2F8C308D828E8C
:204980008374FFF01FEFF51970E48F19F52F7530F4753120753200758210124402E58260C9
:2049A0000475820222753320753402E4F535F5367531C27532007519007F00EF252FFDE4EC
:2049C0003530FEEF905B6493FC8D828E83F00F8F19BFC20040E58F19758212124402E582CA
:2049E0006004758205227582002275820022AF31AD33AE34753320753402E4F535F536F5C0
:204A000031F53275821AC007C006C005124402E582D005D006D0076004758204227C008F0E
:204A2000318C327F007C008D338E348F358C36752F007530F4E4F531F532758214024402C3
:204A40009023FEE493FEA3E493FF8E828F83122481AE82AF83ADF0FC8E338F348D358C363B
:204A60009023FCE493FEA3E493FFC007C006C033C034C035C03674A0C0E07459C0E0748085
:204A8000C0E08E828F83122481E58124F9F581D006D007E4F531F532758216024402AF3191
:204AA000AD33AE34753320753402E4F535F536F531F53275821AC007C006C005124402E59B
:204AC00082D005D006D0076004758204227C008F318C327F007C008D338E348F358C3675DF
:204AE00082120244027582002275820022C2AAD2937F00EF2408FDE434F1FEEF2418F58297
:204B0000E434F1F583E0FC8D828E83F00FBF080040E1D2817582201224E4C2817582201241
:204B200024E4AFFE747F5FF5FEC296AFFE74FD5FF5FEC29275820022D281C291D29243FEFB
:204B400002D297D29643FE8075820A1224E4D280751A007F00EF2418FDE434F1FEEF2408FC
:204B6000F582E434F1F583E0FC8D828E83F00F8F1ABF080040DF8F1A90F1087480F0742504
:204B8000A3F0E4A3F0E4A3F090F10E7408F090F10D7402F090F10CE4F09023F6E493FEA383
:204BA000E493FFC007C0068E828F83122481D006D007C293752D00752C00C2E9C28BD2AA60
:204BC000D291C29775820A1224E4C291D29775820A1224E4D291C29775820A1224E4C291FD
:204BE000D29775820A1224E4D291C29775820A1224E4C28175820A1224E4C291D297758249
:204C00000A1224E47582021224DFE52360030080F9752D00752C0090001A75F0401243B7E0
:204C2000E582702F9023FCE493FEA3E493FFC007C006746CC0E07459C0E07480C0E08E8213
:204C40008F83122481158115811581D006D007758201229023FCE493FEA3E493FFC007C03E
:204C6000067477C0E07459C0E07480C0E08E828F83122481158115811581D006D007E4F581
:204C800031F532F533F534F535F536758218124402E582600475820122752F007530F47518
:204CA0001A207F20AD2FAE3074012DFBE43EFC8B2F8C308D828E8374FFF01FEFF51A70E43C
:204CC0008F1AF52F7530F4753120753200758210124402E582600475820222752F00753073
:204CE000F47533F075340FE4F535F536F531F532758214124402E582600475820122752FFE
:204D0000007530F49023FCE493FEA3E493FF852F82853083A3E0FD7C00852F82853083E005
:204D2000FB7A00C007C006C005C004C003C0027426C0E0745CC0E07480C0E08E828F8312F1
:204D40002481E58124F9F581D006D0079023FCE493FEA3E493FF740B252FF582E43530F543
:204D600083E0FD7C00740A252FF582E43530F583E0FB7A00C007C006C005C004C003C0025D
:204D8000743AC0E0745CC0E07480C0E08E828F83122481E58124F9F581D006D0077582004B
:204DA0002275820022752F007530F4E4F531F5327582140244029023FEE493FEA3E493FFB8
:204DC0008E828F83122481AE82AF83ADF0FC8E338F348D358C369023FCE493FEA3E493FFBA
:204DE000C007C006C033C034C035C03674A0C0E07459C0E07480C0E08E828F83122481E5E1
:204E00008124F9F581D006D007E4F531F532758216024402758212024402758200227582EA
:204E20000022C2AAD2937F00EF2408FDE434F1FEEF2418F582E434F1F583E0FC8D828E83C2
:204E4000F00FBF080040E1D2817582201224E4C2817582201224E4AFFE74FD5FF5FEC292AF
:204E6000AFFE747F5FF5FEC2967582002285E421E52130E4F8AFE474EF5FF5E422AF82C2F0
:204E800091D29243FE02C007124E6DD007D29643FE807E08EF30E004D2978002C297EFC3C7
:204EA00013FFD291C007C006124E6DC291124E6DD006D007DEDEAFFE747F5FF5FEC296222E
:204EC0007F00C291C007124E6DD29243FE02AEFE747F5EF5FEC296124E6DD0077E08D291F0
:204EE000C007C006124E6DD006D007EFA29713FFC291C007C006124E6DD006D007DEDF8FCB
:204F0000822275E20075DA1075DB2775E402AFE474EF5FF5E4D291124E6DC291AFFE74FD96
:204F20005FF5FEC292AF8C74FD5FF58C758A00E58A30E1FB438C02758A007E007F00C00731
:204F4000C006124E6DD006D0070EBE00010FE58A20E104EE4F70E79023FCE493FCA3E493F1
:204F6000FDC005C004C006C00774ADC0E0745CC0E07480C0E08C828D83122481E58124FBFF
:204F8000F581D004D005124E6DD29243FE02124EC0AE827F00C007C006124EC0AD82D006FD
:204FA000D0078D04E44206EC42079023FCE493FCA3E493FDC005C004C006C00774ADC0E018
:204FC000745CC0E07480C0E08C828D83122481E58124FBF581D004D005124EC0AD828D0672
:204FE0007F00C007C006124EC0AD82D006D0078D04E44206EC42079023FCE493FCA3E4937B
:20500000FDC005C004C006C00774ADC0E0745CC0E07480C0E08C828D83122481E58124FB5E
:20502000F581D004D005124EC0AD828D067F00C007C006124EC0AD82D006D0078D04E442B0
:2050400006EC42079023FCE493FCA3E493FDC005C004C006C00774ADC0E0745CC0E07480A1
:20506000C0E08C828D83122481E58124FBF581D004D005124EC0AD828D067F00C007C00629
:20508000124EC0AD82D006D0078D04E44206EC42079023FCE493FCA3E493FDC005C004C0A0
:2050A00006C00774B1C0E0745CC0E07480C0E08C828D83122481E58124FBF581D004D005E1
:2050C0009023FCE493FCA3E493FDC005C00474B5C0E0745CC0E07480C0E08C828D831224ED
:2050E00081158115811581D004D0059023FEE493FCA3E493FD8C828D83122481AC82AD8356
:205100008C068D079023FCE493FCA3E493FDC007C006C005C004C006C00774B1C0E0745CF8
:20512000C0E07480C0E08C828D83122481E58124FBF581D004D005D0068E82C006124E7D39
:20514000D006D0078F82124E7D7582021224DFE52370FC124EC0AD82C005124EC0AC82D000
:20516000058C068E077E008D037C00EB4206EC42079023FCE493FBA3E493FCC004C003C093
:2051800006C00774C0C0E0745CC0E07480C0E08B828C83122481E58124FBF581D003D004F5
:2051A0009023FCE493FBA3E493FCC004C00374CAC0E0745CC0E07480C0E08B828C831224FD
:2051C00081158115811581D003D0049023FEE493FBA3E493FCC004C0038B828C8312248152
:2051E00085821B85831C85F01DF51ED003D004AE1BAF1C9023FCE493FBA3E493FCC007C0CB
:2052000006C004C003C006C00774B1C0E0745CC0E07480C0E08B828C83122481E58124FB53
:20522000F581D003D004D0068E82C006124E7DD006D0078F82124E7D7582021224DFE52317
:2052400070FC124EC0AD82C005124EC0AC82D0058C068E07E4FEFCED4206EC42079023FC8D
:20526000E493FCA3E493FDC005C004C006C00774C0C0E0745CC0E07480C0E08C828D831286
:205280002481E58124FBF581D004D005C29175E40022D281D291D29243FE029023FCE49374
:2052A000FEA3E493FFC007C00674D4C0E0745CC0E07480C0E08E828F831224811581158159
:2052C0001581D006D0079023FCE493FEA3E493FFC007C00674E4C0E0745CC0E07480C0E0C5
:2052E0008E828F83122481158115811581D006D007C2817582221224DFE52370FC741045B8
:2053000025F525752D00752C00E52520E40302537F9023F2E493FEA3E493FFC007125322A5
:20532000800BC006C00790001F75F04022AE82D007EE60D57445B51F09AF2574EF5FF5256F
:2053400080C77454B51FC29023FCE493FEA3E493FFC007C00674EFC0E0745CC0E07480C0B7
:20536000E08E828F83122481158115811581D006D007124F02AF2574EF5FF5250253099004
:2053800023FCE493FEA3E493FFC007C0067400C0E0745DC0E07480C0E08E828F83122481E1
:2053A000158115811581D006D0070253ADD281AFFE74FD5FF5FEC292AFFE747F5FF5FEC2B1
:2053C00096C2817582FF22E523601A309705E58A30E7F4000000000000309704D2D1800224
:2053E000C2D1758A002230D10CC297000000D2977F0ADFFE22C2977F0ADFFED2970000007A
:2054000022AF82C2D5D297D29643FE80C2D1C0071253E6D0077E08EF30E706D2D1B2D58058
:2054200002C2D1C007C0061253E6D006D007EF2FFFDEE4A2D592D11253E6AFFE747F5FF55A
:20544000FEC296758A000253C77F00AEFE747F5EF5FEC296758A00C2D5C0071253C7D007B4
:2054600020D1047582FD227E08C007C0061253C7D006D007E5237006C2D17582FC22EF2FF1
:20548000FF30D105430701B2D5DEDEC0071253C7D007E5237006C2D17582FB22A2D130D512
:2054A00001B392D530D506C2D17582FA22D297D29643FE80D2D1C0071253E6D007AEFE74E2
:2054C0007F5EF5FEC2968F8222AF82C2D5D297D29643FE80C2D1C0071253E6D0077E03EF2B
:2054E00030E206D2D1B2D58002C2D1C007C0061253E6D006D007EF2FFFDEE4A2D592D11205
:2055000053E6AFFE747F5FF5FEC296758A000253C77582011224DFE52370FC75820212243D
:20552000DF7582021254C9853182125401853582125401853482125401853382125401AE31
:2055400031AF32EE24FFFCEF34FFFD8C318D32EE4F601BAE2FAF3074012EFCE43FFD8C2FA3
:205560008D308E828F83E0F58212540180D1227582011224DFE52370FC7582021224DF7517
:2055800082011254C9853182125401853582125401853482125401853382125401AE31AF46
:2055A00032EE24FFFCEF34FFFD8C318D32EE4F6024AE2FAF3074012EFCE43FFD8C2F8D305D
:2055C000C007C006125449AD82D006D0078E828F83EDF080C822438C02758A00D297D296A9
:2055E00043FE80D281752F007530F47582011224E4C2977F8000DFFD7582021224DFE523FE
:2056000070FC7582021224DF7F08B297758210C0071224E4D007DFF27F08B297758208C021
:20562000071224E4D007DFF2D297AFFE747F5FF5FEC296309704E52370F9E523702B90235C
:20564000FCE493FEA3E493FFC007C006742EC0E0745DC0E07480C0E08E828F8312248115FE
:205660008115811581D006D007209704E52370F97582011224E4E523700302576475338032
:2056800075347FE4F535F536753101753200752F007530F4852F828530837420F0125511B4
:2056A00075338075347FE4F535F536753101753200752F007530F4852F828530837480F084
:2056C000125511C2817582221224E4753326753449E4F535F53675310C753200752F007571
:2056E00030F412556F752F007530F475200C9023FCE493FDA3E493FEAB2FAC3074012BFA47
:20570000E43CFF8A2F8F308B828C83E0FB7F00C006C005C003C007749BC0E07459C0E074D7
:2057200080C0E08D828E83122481E58124FBF581D005D006D520B79023FCE493FEA3E493E2
:20574000FFC007C0067439C0E0745DC0E07480C0E08E828F83122481158115811581D006FA
:20576000D007802B9023FCE493FEA3E493FFC007C006743EC0E0745DC0E07480C0E08E8276
:205780008F83122481158115811581D006D0077582002275820022753110753200752F009E
:2057A0007530F412556F753110753200752F007530F475820022758200227582002275829E
:2057C000002275820022D2817582021224E4C2817582002280FEFB7A20E4FCFDFEFFE58278
:2057E0002582F582E58333F583E5F033F5F0EB33FB4017DAE98042E5822582F582E5833376
:20580000F583E5F033F5F0EB33FBEC33FCED33FDEE33FEEF33FFEC9521ED9522EE9523EFB7
:2058200095244013EC9521FCED9522FDEE9523FEEF9524FF438201DABEEB2220F71130F619
:20584000138883A88220F509F6A8837583002280FEF280F5F022AAF0FBE5828521F0A4FC7E
:20586000ADF0E5838521F0A42DFDE435F0FEE5828522F0A42DFDE5F03EFEE433FFEA852135
:20588000F0A42EFEE5F03FFFE5838522F0A42EFEE5F03FFFE5828523F0A42EFEE5F03FFF71
:2058A000EB8521F0A42FFFEA8522F0A42FFFE5838523F0A42FFFE5828524F0A42F8EF08D92
:2058C000838C82227582002255736572496E69740A0055736572526561640A0055736572FB
:2058E00045726173652061742030782530386C580A005573657257726974650A00557365BF
:2059000072457869740A00557365724578616D706C6520544553540030FF0759FD242C25A5
:2059200030256325BA25E925ED25F1250A0D43686970494420253034580A00434331313129
:20594000300031FF3B594428E828EC28402943292B2A2F2A332A506C7567204361626C6554
:20596000202626205077722E2E2E0A0045727242534C2E2E2E0A0045726173652E2E2E0AAC
:205980000042534C203A2000253032582E000A0043484950204944203A200025303258006B
:2059A00030782530386C5820004E4D495F4D535034333046357878782042534C0032FFA946
:2059C00059512D512DDE302E319931B831BC31C03144502E49443A202530386C580A00412F
:2059E000502E49443A202530386C580A0043442E49443A202530386C580A0053544D333297
:205A00004630205357440033FFFB590134E236E6369B375838433947394B394D45544552B4
:205A200020494E49540A0051202D20717569740A00256C752E002530336C7520487A0A00F4
:205A40004E6F205369676E616C0A0046524551204D455445520034FF4B5A7939353C353CCA
:205A6000353C353C353C353C353C4552524F52203A204F6464416464726573730A0055446D
:205A8000313A20253034580A005544323A20253034580A005544333A20253034580A00551A
:205AA00044343A20253034580A0044455649443A20253034580A00436F6E666967313A2097
:205AC000253034580A00436F6E666967323A20253034580A004357313A20253034580A00FE
:205AE0004357323A20253034580A004D6963726F6368697020504943313646313530332065
:205B00004C56500036FFEB5AA03D78407C40FE400E41124216421A420A5F47465F3E7374B9
:205B2000617274203A20284354524C2D5120454E44290025752025750A000A5F47465F3EB8
:205B4000656E640A0047617A203220467265710035FF455B3F4283438343834383438343AF
:205B60008343834331401A020943B0122A0EB012BA0D55420B02759012001F24B012BA02C1
:205B800055420B02759016001624759014001124B012840E063CB012940E033C2153B0124F
:205BA0008C0EB24010A52C01B24000A528013040420C3040760D3040AC0C16420E0217421D
:205BC0001002E2B208021424B012100F369000100628B24000A52C01B24040A52801D6421C
:205BE0000602000016531783EF23B012BA02D33FB012100F1783FC23B012BA02D03F184277
:205C00001202B012100FD24206021202B012100FD2420602130238E318921202BF23E2B3FD
:205C20000802BC23304143484950204944203A2025303258253032580A0042534C203A209C
:205C4000253032582E253032580A0050617463680A004D53503433307828312D3429204210
:205C6000534C2076312E3130287061746368290037FF525CAA46EA49EE49404A9E4AE54AEF
:205C8000E94AED4A4D535034333046323132312042534C2076322E320038FF845C384BA1A3
:205CA0004DA54DB64D144E1A4E1E4E224E25752C0025750A0053656E642054696D65200039
:205CC000436865636B2025750A0053656E6420546D7020000A47415A544553542073746193
:205CE00072740A004520666F7220454E440A005347552D323031352D3120546573740A00FB
:205D00000A47415A544553543E656E640A0047415A5445535420762E310039FF0E5D92523A
:205D2000AD53AD53AD53AD53AD53AD53AD535357494D20455252310A002049440A0053577E
:205D4000494D20455252320A0053544D38205357494D0041FF495DD65593579757B657BA2C
:075D600057BE57C257C6579A
:107FD000185980425980BD5980075A80565A80509E
:117FE0005B80045B80705C80995C801A5D80535D80EE
:00000001FF
