:020000040800F2
:20000000D013002085310008D12F0008D32F0008D52F0008D72F0008D92F000800000000E3
:20002000000000000000000000000000DB2F0008DD2F000800000000DF2F0008E12F00086C
:20004000DD310008E1310008E5310008E9310008ED310008F1310008E92F0008F93100088E
:20006000FD3100080132000805320008093200080D32000811320008153200081932000859
:200080001D3200082132000825320008293200082D32000831320008353200083932000838
:2000A0003D3200084132000845320008493200084D32000851320008553200085932000818
:2000C0005D3200086132000865320008693200086D320008713200087532000879320008F8
:2000E0007D32000881320008FB2F0008893200088D32000891320008953200089932000865
:200100009D320008A1320008A5320008A9320008AD320008B1320008B5320008B9320008B7
:20012000BD320008C1320008C5320008C9320008CD320008D1320008D5320008D932000897
:20014000DD320008E1320008E532000825300008ED320008F1320008F5320008F93200083D
:20016000FD3200080133000805330008093300080D33000811330008153300081933000850
:200180001D3300082133000800221100C2685FF0FF335360C2685FF0FF33536151F0004139
:2001A00051F40061C2689161704770B582B004000025002600200090032000F044FEE068D3
:2001C00000690090761CDFF89803864201D300201DE000980028EFD500200600009850F0E7
:2001E00001000090E06800990161E06800690090761CDB48864205D2009810F00100C0B28B
:200200000028F2D1032000F01EFE2800C0B276BDF0B504000020E578002D1BD1002500266D
:200220009BB213F1030C5FF0040E9CFBFEFC6546D2B214EB820CDCF8D0C067465FF0000C44
:200240006646AE4206D2D1F800C0C7F800C0761C091DF6E7C0B2F0BD70B40300080000211E
:2002600092B2D41C042594FBF5F4D3F8D05000263100A14204D22E680660491C001DF8E751
:2002800070BC704770B40200002400200025D5700125957040259580C9B201290ED15FF02F
:2002A000A0452C000125D57208251570042555704FF4A075D580022515720DE0C9B2002934
:2002C0000AD1A84D2C000025D5720C251570062555704FF4A065D580D46014F5006515615B
:2002E00000252B005578AB420FD212EB830514EB431616F51066AE6112EB830514EB4316C9
:2003000016F530666E655B1CECE714F58065556114F58865C2F8CC5000252B001578AB42E5
:2003200009D212EB830514EB431616F5A066C5F890605B1CF2E700252B001578AB420BD250
:2003400012EB83054FF4805606FB034616F58056C5F8D0605B1CF0E714F56065C2F80C51B4
:20036000C0B270BC70472DE9F84304000025002006000020070000208146207A01282FD1B7
:20038000E068806B070037F48037607A002801D057F48017E068876300200600E068C068C4
:2003A000060036F0400636F4800656F0100636F0080636F0800636F4003636F40026E068E7
:2003C000C6602000FFF7F1FEE078012853D1052060F3440959F02009E068C0F808904AE054
:2003E000E068C068060056F04006E068C6602000FFF7DBFE0020070057F48037207A0328B0
:2004000001D157F4003757F4802757F4002757F40017607A002801D057F48017E0688763DB
:20042000142000F01CFDE068C0680600207A032801D156F48036E068C660207A03281AD154
:20044000E068006B8046012060F39B6838F4000858F080582D2060F31648E068C0F83080AA
:20046000C82000F0FCFC58F40008E068C0F83080C82000F0F4FCE07801280AD1E068806854
:200480008146052060F3440959F02009E068C0F808902800C0B2BDE8F28310B4010000202D
:2004A00000231A0052F00102CB689B681343CC68A360C0B210BC704710B4010000200023FA
:2004C0001A0052F00102CB689B689343CC68A360C0B210BC7047F8B504000D00002600277A
:2004E00000200090009850F020000090009865F38A100090E06800990161E0680069009026
:200500007F1C1748874204D20098C0F34010C007F3D4032000F097FC3000C0B2F2BD70B5FD
:2005200082B004000025002600200090009850F010000090E06800990161E068006900908E
:20054000761C0748864204D20098C0F30010C007F3D4032000F077FC2800C0B276BD0000E0
:20056000410D030000000440F8B504000D000026E068C068070037F0005737F08047EDB280
:20058000012D02D157F0005704E0EDB2002D01D157F08047E068C760322000F060FC3000EF
:2005A000C0B2F2BDC068406910F00100704710B504002000FFF7F6FF012801D0012000E0C2
:2005C0000020C0B210BD01000020CA6852691000CA6892691040704703691B681A00C9B2E6
:2005E00061F3010203691A6070472DE9F84F040000208DF8000000208246002007000020D2
:2006000080460020814600200500D4F80C010021016020690068070037F4C0572069076083
:20062000E07A01282CD103212000FFF7D5FFE06880214162202060F31F48802060F30F089C
:20064000E068C0F8288018EB184060F30F09802060F31F49E068C0F8049119EB194060F38C
:200660000F09202060F31F49E068C0F8089119EB194060F30F091FFA89F9E068C0F80C91CE
:2006800010212000FFF727FF2000FFF748FF20690021016120690021416120695FF0FF3130
:2006A000816120690021C161002083466078834522D214EB8B00806900688246BAF1000FB2
:2006C00006D5002082465AF0804A5AF0006A01E00020824614EB8B008069C0F800A014EBFC
:2006E0008B0080690021016114EB8B008069FF2181601BF1010BD9E700208346607883452E
:2007000020D214EB8B01496D09680800002806D50021080050F0804050F0006001E000215F
:20072000080014EB8B01496D086014EB8B01496D00220A6114EB8B01496DFF228A601BF1E2
:20074000010BDBE7002005004FF48070054320690069A843284321690861E07801280FD18F
:200760000020060056F0010656F00206402060F38A0656F48036402060F359462069066331
:20078000200000F004F89DF80000BDE8F28F70B50400002500200600E06800218161E0688B
:2007A0005FF0FF3141612000FFF7EEFCE078002801D156F0100656F4006656F4805656F450
:2007C000005656F4802656F4002656F0080656F4801656F40016E0688069B0433043E168EF
:2007E00088612800C0B270BD010000200B699B681A00530813F00303002B05D0022B09D02D
:2008000005D3032B03D007E00323180004E00223180001E001231800C0B2704770B401004E
:20082000002000252C000D69AD682A008D692D682B00550815F00305002D04D0022D05D06D
:2008400001D3032D05D1DB0ADB0202E0032565F30A038D692B604FF480752C430D696D681A
:20086000A54325430E697560C0B270BC7047F0B40200002000263300002634004E78012E19
:200880000BD10E7812EB8606B6693500012691F90070BE4066F30F040AE00E7812EB860695
:2008A000766D3500012691F90070BE4066F31F442E683300C3F3C036F6070DD48E6866F3A3
:2008C0000A03CE7866F39343CE8866F3995353F0805353F400432B601669F6692643176909
:2008E000FE61C0B2F0BC7047F0B40200002000263300002634004E78012E0BD10E7812EBF7
:200900008606B6693500012691F90070BE4066F30F040AE00E7812EB8606766D3500012634
:2009200091F90070BE4066F31F4433F400432B601669F669A6431769FE61C0B2F0BC704793
:200940002DE9F04704000D0000265FF0000A0020070000208046687801286BD1287814EBC9
:200960008000806900680700287814EB80008069006980466869002807D15FEAD8485FEAE5
:20098000C848012060F3DC4811E0686960F312086869A9680818401EA968B0FBF1F060F330
:2009A000DC48E878012802D1012060F35E78287814EB80008069C0F81080E078012806D1C5
:2009C000287814EB800080692969416110E0E87801280DD0686900280AD0012095F90010F3
:2009E000884082462069406B5AEA000021694863E87801280AD12069806881465FEAC950BC
:200A000002D457F0005701E057F0805757F0806757F00047287814EB800080690760E878D8
:200A200001284FD16B699BB22A78E9682000FFF7EFFB47E0287814EB8000406D00680700F7
:200A4000287814EB8000406D006980466869002806D1A86860F31208012060F3DC480EE0C8
:200A60006869A9680818401EA968B0FBF1F060F3DC48C8F3C940A968484360F31208287895
:200A800014EB8000406DC0F81080E078012805D1287814EB8000406D29694161E878012802
:200AA00007D16879002802D057F0005701E057F0805757F0806757F00047287814EB80000B
:200AC000406D07603000C0B2BDE8F087FCB402000020002500263300002600964E78012E43
:200AE00049D19669340026683300266900964E69002E09D1009EF609F60100960126009F14
:200B000066F3D447009715E08E684F69BE4207D28E684E618E68009F66F30607009704E033
:200B20004E69009F66F3060700970126009F66F3D4470097009E2661D678012E05D10E7893
:200B400012EB8606B6690F69776153F0806353F000432360D678002E4BD14E69002E48D0D9
:200B6000012691F90070BE4035431669766B2E4317697E633DE00E7812EB8606766D3668FF
:200B800033000E7812EB8606766D366900964E69002E0AD18E68009F66F306070097012682
:200BA000009F66F3D44700970BE08E684E618E68009F66F3060700970126009F66F3D4472F
:200BC00000970E7812EB8606766D009F3761D678012E05D10E7812EB8606766D0F697761C0
:200BE00053F0806353F000430E7812EB8606766D3360C0B2F6BC704730B4020000200025BE
:200C00002C004D78012D0ED10D7812EB8505AD692B001D682C00002C01D554F0804454F486
:200C200000141C6009E00D7812EB85056D6D2B001D682C0054F400141C60C0B230BC70478C
:200C400030B40200002000252C004D78012D05D10D7812EB8505AD692B0004E00D7812EBC1
:200C600085056D6D2B001D682C0034F40014CD78032D02D0CD78022D01D154F080541C60D7
:200C8000C0B230BC704701000A69926910000A69D2691040000C70470200C9B212EB810301
:200CA0005B6D9B68180013695B691840704701000A69926910000A69D269104080B270479C
:200CC00082B000210091009951F0404100910121009A61F3D44200921821009A61F306025D
:200CE0000092416D009A0A61C17801290FD100221100426D00F2C8535361426D126811008F
:200D000051F000415FF080221100426D116002B07047817A002911D003699B68190011F038
:200D20000103DBB2002B09D0D0F80C311A0032F0020252085200D0F80C311A60704710B433
:200D400050F8041B81B102681218001D50F8043BDC0744BFA9F10104E31852F8044B43F86E
:200D6000044B091FF9D1EBE710BC70471CB504000121012000F0FCF84FF4D85000900320C3
:200D80008DF8050002208DF8040000208DF8060000208DF8070000A91E4800F037F90A226C
:200DA00008211C4800F087F90A220921194800F082F90A220B21174800F07DF90A220C219E
:200DC000144800F078F94FF48060009001208DF8060001208DF8070003208DF8050000A9F4
:200DE0000C4800F013F90A220A210A4800F063F901214FF4804000F0D9F80121802000F016
:200E0000C6F801215FF0805000F0DFF8012000F0C3F913BD0000024010B582B004004FF4EF
:200E2000C06000F0C7F943208DF8000001208DF8010003208DF8020001208DF8030000A858
:200E400000F0BDF913BD0021782202FB00F20723B2FBF3F2491C8A4200D3FBE7704710B554
:200E600004004FF47A7000FB04F0FFF7ECFF10BDF0B4002100220023022400250226DFF850
:200E800068713F6817F00C0739000F00002F04D0042F06D0082F08D03CE0DFF85471076036
:200EA0003BE0DFF85071076037E0DFF840713F68C7F380573D00DFF834713F6817F03F0794
:200EC0003E00002D0DD0DFF82C71B7FBF6F7DFF81CC1DCF800C0CCF3881C0CFB07F73B00CC
:200EE0000CE0DFF80C71B7FBF6F7DFF800C1DCF800C0CCF3881C0CFB07F73B00DFF8EC7011
:200F00003F68C7F301477F1C7F003C00B3FBF4F7076002E0DFF8D8700760DFF8CC703F68B0
:200F200017F0F00739000909DFF8CC70CF5D3A000768D7404760DFF8B0703F6817F4E057E2
:200F40003900890ADFF8B070CF5D3A004768D7408760254F3F6817F460473900490BDFF88A
:200F60009870CF5D3A004768D740C760F0BC7047C9B2002905D0214A126802431F4B1A602C
:200F800004E01E4A126882431C4B1A607047C9B2002905D01A4A12680243194B1A6004E0D0
:200FA000174A12688243164B1A607047C9B2002905D0144A12680243124B1A6004E0114A53
:200FC000126882430F4B1A607047C9B2002905D00D4A126802430C4B1A6004E00A4A126835
:200FE0008243094B1A60704708380240043802400024F40000127A000C010020303802402C
:20100000343802404438024020380240F0B400220023002400252A00102A4AD2012595401D
:201020002B000D681D402C009C4240D1056803261700FFB27F00BE40B543056005680E796C
:201040001700FFB27F00BE40354305600D79012D02D00D79022D1AD1856803261700FFB26A
:201060007F00BE40B543856085684E791700FFB27F00BE4035438560456801269640B5431E
:20108000456045688E799640B6B235434560C56803261700FFB27F00BE40B543C560C568B7
:2010A000CE791700FFB27F00BE403543C560521CB2E7F0BC7047F0B400230024D2B211F02D
:2010C0000705EDB2AD0012FA05F52B0089B2CD1010EB850589B2CE1010EB8606366A0F2774
:2010E00011F0070C5FFA8CFC5FEA8C0C17FA0CF7BE432E6289B2CD1010EB85052D6A1D43E1
:201100002C0089B2CD1010EB85052C62F0BC70470021234A11008279002A36D0204A126867
:2011200003689A431E4B1A601E4A126803689A431C4B1A60027989180A6803681A430A60B9
:20114000194A126803689A43174B1A60174A126803689A43154B1A604279102A0CD1124A63
:20116000126803681A43104B1A60104A126803681A430E4B1A600EE0094A1100427989183B
:201180000A6803681A430A6005E0027989180A6803689A430A607047054908607047000062
:2011A000003C0140043C0140083C01400C3C0140143C01401C4901431C4A11607047F0B4B7
:2011C000002300210F22C478002C21D0174C246814F4E064D4F5E064240A2300D3F10404DC
:2011E0002100D2B21A4144788C4023008478144023431B0104780E4D6355047864110D4D98
:201200000126077817F01F07BE4045F8246009E004786411084D0126077817F01F07BE403C
:2012200045F82460F0BC70470000FA050CED00E000E400E000E100E080E100E070B50400C3
:2012400000262000FFF7B3F9002869D02000FFF7BAF90500002D01D1002062E0C5F3C0405E
:20126000C00704D5200000F059F930430600C5F38040C00704D5200000F0B1F830430600A9
:20128000C5F34000C00705D50021080050F00200E1684861002D04D5200000F043F8304394
:2012A0000600C5F3C020C00704D5200000F060F830430600C5F3C000C00704D5200000F0E7
:2012C000A9F930430600C5F30010C00704D5200000F0AFF930430600C5F30030C00704D5D2
:2012E000200000F048FA30430600C5F34030C00704D5200000F0A8FA30430600C5F3005028
:20130000C00704D5200000F0C6FA30430600C5F34050C00704D5200000F0CCFA30430600AD
:20132000300070BDF8B50400A07A002809D0D4F80C01060036F0020676087600D4F80C01AA
:2013400006600020070057F0010720694068B843216948602000DFF87C1509688969884799
:201360000020050055F00045E06845610120F2BDF8B504002000DFF85C15096849698847F5
:201380002069806807000020050055F40065E0684561A07A002820D017F00100C0B2002840
:2013A0001BD00020060056F00106D4F80C0100683043D4F80C11086056F00206D4F80C01A3
:2013C00000683043D4F80C110860DFF80C05006850F00600DFF8001508600120F2BD2DE911
:2013E000F04104000027002005002000FFF75FFC0600002E00F08F803000C00740F1888098
:201400003900C9B2200000F069FA050015F00100C0B2002824D00120B84080462069406BF9
:2014200030EA0800216948630020050055F0010514EB8700806985603900C9B22000DFF8E6
:201440009424126852689047E078012808D1002F06D194F81101042802D12000FFF730FC8A
:20146000C5F38000C00707D50020050055F0040514EB870080698560C5F3C000C00707D5AF
:201480000020050055F0080514EB870080698560C5F30010C00707D50020050055F0100597
:2014A00014EB870080698560C5F34010C00707D50020050055F0200514EB8700806985604A
:2014C000C5F38010C00707D50020050055F0400514EB870080698560C5F34000C00707D583
:2014E0000020050055F0020514EB870080698560C5F3C010C0070BD53900200000F0EBF8CC
:201500000020050055F0800514EB8700806985607F1C76086DE70120BDE8F0812DE9F0419D
:2015200004005FF00008002006002000FFF7ABFB0500002D6BD02800C00764D54146C9B2D7
:201540002000FFF7A9FB060016F00100C0B2002830D00020060056F0010614EB8800406D83
:201560008660E078012811D114EB8800406D00690700282000FB0840D0F878037903490BE0
:20158000401A282101FB0841C1F888034146C9B22000D04A126812689047E078012809D1BD
:2015A000B8F1000F06D194F81101052802D12000FFF786FBC6F34000C00707D500200600A5
:2015C00056F0020614EB8800406D8660C6F38000C00707D50020060056F0040614EB8800CA
:2015E000406D8660C6F3C000C0070CD52000B9490968896888470020060056F0080614EB6B
:201600008800406D866018F101086D0891E70120BDE8F08138B504002000AE490968C968CF
:2016200088470020050055F00805E0684561012032BDF8B504000020070057F01007E068E8
:201640008069B843E1688861E068006A050015F00F00282101FB004000F270300600680C18
:2016600010F00F00012808D0022807D003281DD004281CD006281BD026E025E0280940058F
:20168000400D80B2002810D0C5F30A1292B2F1682000FEF7E1FDC5F30A10F1684018F0608C
:2016A000B069C5F30A110818B0610DE00CE00BE0082214F5B9612000FEF7CEFDB069C5F34B
:2016C0000A110818B061FFE7E06880693843E16888610120F2BD2DE9F84304000D005FF079
:2016E000000800200600282000FB054000F2181007007869B969401A8046B868404501D278
:20170000B868804618F103008008814614EB8500806980690600B0B2814529D2B869796906
:20172000884225D27869002822D07869B969401A8046B868404501D2B868804618F1030060
:201740008008814643469BB22A00D2B2F9682000FEF75EFDF86818EB0000F860B86918EB06
:201760000000B86114EB8500806980690600D2E70120BDE8F2832DE9F84F040000208146B8
:20178000002005000020060000200700002080460020824659F001092069406830EA090062
:2017A0002169486000212000FEF795FE00208346607883450CD214EB8B008069FF21816053
:2017C00014EB8B00406DFF2181601BF1010BEFE720695FF0FF318161012060F30F05012050
:2017E00060F31F452069C56156F0080656F0010656F0040656F002062069466157F00107C5
:2018000057F0080757F0020757F0040757F020072069076120690068804638F4FE6820699F
:20182000C0F800802000FFF74BFA002082465AF4805AE068C0F814A02000264909680969DF
:2018400088470120BDE8F28F70B504002000FEF7E5FFE068C06806002000FEF7C5FF0328D6
:2018600008D10020A0704FF40070A080092060F38D2606E00120A0704020A080052060F34E
:201880008D26E068C6600020050055F40055E0684561012070BD38B50400002005002000F2
:2018A0000C490968C969884755F48015E0684561012032BD38B50400002005002000054901
:2018C0000968096A884755F40015E0684561012032BD00002C01002010ED00E030B40200E9
:2018E00015692D692C0015696D6B2B0033FA01F515F0010554EAC514C9B212EB8105AD69CE
:20190000AD682540280030BC704750F8041B61B150F8042BD30744BFA9F101039A18002342
:2019200042F8043B091FFAD1EFE7704770B504000D0000266878002820D0012828D003280E
:2019400021D005280BD0062804D0082811D009280AD022E02900200000F003F921E029000F
:20196000200000F099F91CE02900200000F0C4F917E02900200000F022FA12E0290020004C
:2019800000F041FA0DE02900200000F063FA08E02900200000F0A3FA03E02900200000F0BF
:2019A000DDFA3000C0B270BD70B504000D00002694F81201032818D1A888C0B202280FD2C5
:2019C00029002000D4F8E02592689047E88800280AD1F6B2002E07D1200000F055FB03E0B8
:2019E0002900200000F0BAFA03E02900200000F0B5FA3000C0B270BDF8B504000D0000277B
:201A0000A88806006878002864D0012832D0032840F0A48094F81201022802D003280CD008
:201A200023E0F6B2002E07D0F6B2802E04D03100C9B2200000F062FC1BE0688800280AD1C4
:201A4000F6B2002E07D0F6B2802E04D03100C9B2200000F053FC29002000D4F8E025926890
:201A60009047200000F010FB03E02900200000F075FA73E094F81201022802D003280CD0F4
:201A800023E0F6B2002E07D0F6B2802E04D03100C9B2200000F032FC1BE06888002813D18B
:201AA000F6B2002E0DD0F6B2802E0AD03100C9B2200000F04BFC29002000D4F8E02592682C
:201AC0009047200000F0E0FA03E02900200000F045FA43E094F81201022802D003280CD025
:201AE00037E0F6B2002E07D0F6B2802E04D03100C9B2200000F002FC2FE0F6B2300611D56B
:201B0000F6B216F07F00282101FB004090F81A01002803D0CB480121016014E0C9480021B9
:201B2000016010E030060ED4F6B2282000FB064090F87203002803D0C2480121016002E0A4
:201B4000C048002101600222BE49200000F04EFA03E02900200000F001FAFFE73800C0B2D1
:201B6000F2BD70B582B004000D00688880B2000AC0B2012808D0022818D0032822D0062852
:201B800062D0072865D069E000A9A078D4F8E825126890470600E888402803D094F812012B
:201BA000012802D10820ADF800005CE000A9A078D4F8E025926A9047060002207070C4F8F7
:201BC000EC6550E0A878002808D0022816D00DD3042823D01AD3052828D02FE000A9A07873
:201BE000D4F8E8255268904706002CE000A9A078D4F8E82592689047060024E000A9A07833
:201C0000D4F8E825D268904706001CE000A9A078D4F8E82512699047060014E000A9A07831
:201C2000D4F8E8255269904706000CE000A9A078D4F8E82592699047060004E029002000A8
:201C400000F08CF927E00EE02900200000F086F921E02900200000F081F91CE02900200069
:201C600000F07CF917E0BDF80000002813D0E888002810D0BDF80000E988884202D2BDF857
:201C8000000000E0E888ADF80000BDF800203100200000F0ABF973BD70B504000D00A888FF
:201CA000002824D1E888002821D1A87810F07F00060094F81201032804D12900200000F000
:201CC0004DF918E084F813613100C9B2200000F065FB200000F0D8F9F6B2002E03D002200E
:201CE00084F8120107E0012084F8120103E02900200000F033F970BD38B504000D0068885B
:201D00005149087050480078022804D32900200000F024F952E094F81201022802D0032852
:201D200018D047E04848007800280FD04648007884F81001032084F812014348017820001C
:201D400000F06FFC200000F09FF902E0200000F09BF933E03C48007800280FD1022084F845
:201D600012013948007884F8100137480178200000F067FC200000F087F91AE032480078E3
:201D800094F81011884211D094F81011200000F058FC2D48007884F810012B480178200054
:201DA00000F03FFC200000F06FF902E0200000F06BF903E02900200000F0D0F831BD38B56B
:201DC00004000D00E888012804D02900200000F0C5F817E094F81201022802D0032806D0FC
:201DE0000CE001221949200000F000F90AE0012204F21011200000F0F9F803E02900200018
:201E000000F0ACF831BD38B504000D0094F81201801E012810D8D4F81401002803D00C48C4
:201E20000321016002E00A480121016001220849200000F0DBF803E02900200000F08EF86D
:201E400031BD0000BC0F0020CB0F0020C00F0020C40F0020F8B504000D00002768880128CF
:201E60000CD10120C4F8140129002000D4F8E02592689047200000F007F92FE0688802286F
:201E80002CD12879000629D1206940680600A88880B2000A0700FFB2012F07D019D3032F24
:201EA0000CD007D3052F11D00CD312E0012060F306160EE0022060F306160AE0032060F317
:201EC000061606E0042060F3061602E0052060F3061620694660200000F0D6F8F1BD38B54F
:201EE00004000D0094F81201801E01280FD8688801280BD10020C4F8140129002000D4F889
:201F0000E02592689047200000F0BEF803E02900200000F023F831BD90F8C8250A7090F889
:201F2000C9254A7090F8CA2590F8CB351B029A184A8090F8CC2590F8CD351B029A188A8085
:201F400090F8CE2590F8CF351B029A18CA80CA88C0F83C21012280F81121704738B5040085
:201F60000D002878000604D58021200000F0C6F90BE0E888002804D18021200000F0BEF9A5
:201F800003E00021200000F0B9F92000FEF798FE31BDF8B504000D0016000027002C1AD0D1
:201FA000200000F019F84000801C3080FFB2308878557F1CFFB2032078557F1C20780028A7
:201FC00009D0FFB220787855641C7F1CFFB2002078557F1CF2E7F1BD010000200A78002A6A
:201FE00002D0401C491CF9E7C0B27047F8B504000D0016000027B6B2C4F83861B6B2C4F869
:020000040800F2
:202000003461022084F81101B6B233002A000021200000F044F93800C0B2F2BDF8B504003E
:202020000D0016000027B6B233002A000021200000F035F93800C0B2F2BDF8B504000D001B
:2020400016000027B6B2C4F89063B6B2C4F88C63032084F8110133009BB22A00002120007D
:2020600000F0EAF83800C0B2F2BDF8B504000D001600002733009BB22A000021200000F05F
:20208000DBF83800C0B2F2BD38B504000025042084F81101002300220021200000F0FFF8DF
:2020A0002000FEF70DFE2800C0B232BD38B504000025052084F81101002300220021200028
:2020C00000F0BAF82000FEF7FBFD2800C0B232BDF8B504000D002900C9B22000FEF7D2F887
:2020E000012084F81201002084F81301002006006078864213D2282000FB064000F2181032
:202100000700012078703E70FE800020F8704020B8600020F86000207861761CE8E7002091
:2021200006006078864213D2282000FB064000F270300700002078703E70FE800020F87036
:202140004020B8600020F86000207861761CE8E72000FEF7B1F92000FEF705F90021200022
:20216000FEF702FA2000FEF740FA2000FEF795F9F1BD2DE9F04104000D0016001F00EDB2A2
:20218000280609D5EDB215F07F00282101FB004000F21810804608E0EDB215F07F00282157
:2021A00001FB004000F27030804615F07F0088F80000C5F3C01088F80100B6B2C8F80860EE
:2021C00088F8037098F80100002803D098F80000A8F80600FFB2022F02D1002088F80400F1
:2021E00041462000FEF743FB0020BDE8F08170B504000D00EDB2280609D5EDB215F07F00CB
:20220000282101FB004000F21810060008E0EDB215F07F00282101FB004000F270300600F1
:2022200015F07F003070C5F3C010707031002000FEF75AFB002070BD2DE9F04104000D00D2
:2022400016001F00EDB215F07F00282101FB004000F270308046C8F80C60BFB2C8F8147068
:202260000020C8F81800002088F8010015F07F0088F80000E078012801D1C8F8106098F8AE
:202280000000002804D141462000FEF71FFC03E041462000FEF754FB0020BDE8F0812DE970
:2022A000F04104000D0016001F00EDB215F07F00282101FB004000F218108046012088F87E
:2022C000010015F07F0088F80000C8F80C60C8F810600020C8F81800C8F8147098F80000D1
:2022E000002804D141462000FEF7F0FB03E041462000FEF725FB0020BDE8F08170B504005C
:202300000D00EDB2280609D5EDB215F07F00282101FB004000F21810060006E0EDB2282070
:2023200000FB054000F2703006000120B07015F07F003070C5F3C010C0B210F00100707085
:2023400031002000FEF758FC002070BD70B504000D00EDB2280609D5EDB215F07F00282149
:2023600001FB004000F21810060006E0EDB2282000FB054000F2703006000020B07015F017
:202380007F003070C5F3C010C0B210F00100707031002000FEF754FC002070BD10B4002379
:2023A0001A00C9B261F30A1203691B6813430469236010BC70472DE9F04104000D001600F2
:2023C0001F00DDF818802000FEF7D0FC200000F014F8C4F8E075C4F8E485C4F8E86529000C
:2023E000C9B22000FFF774FED4F8E405006880472000FEF711FDBDE8F081010000207047E5
:202400001CB5040000A92000FFF786FD9DF8000010F01F00C0B2002803D002280BD005D3A7
:202420000EE000A92000FFF781FA10E000A92000FFF7BAFA0BE000A92000FFF7DDFA06E0AA
:202440009DF8000010F080012000FFF757FF002016BD70B504000D00EDB2002D34D104F20A
:202460007030060094F8110103283DD1B068F169884217D2F069B168401AF061E07801281C
:2024800003D1B068F1684018F060F069B168884201D2F26900E0B26892B2F1682000FFF738
:2024A000E4FD21E0D4F8E0050069002808D094F81201032804D12000D4F8E015096988475F
:2024C0002000FFF7E1FD0FE0D4F8E005806900280AD094F81201032806D12900C9B2200018
:2024E000D4F8E02592699047002070BD70B504000D00EDB2002D46D104F21810060094F823
:20250000110102284FD1B068F169884211D2F069B168401AF061E078012803D1B068F1685D
:202520004018F060F26992B2F1682000FFF776FD39E0306AB168B0FBF1F201FB12000028E2
:202540000FD1306AB16888420BD3306A716A884207D2002200212000FFF760FD0020706280
:2025600021E0D4F8E005C068002808D094F81201032804D12000D4F8E015C96888472000E1
:20258000FFF794FD0FE0D4F8E005406900280AD094F81201032806D12900C9B22000D4F838
:2025A000E02552699047002070BD10B504000023402200212000FFF7DCFD002340228021B3
:2025C0002000FFF7D6FD012084F81201A078D4F8E41549688847002010BD10B50400D4F883
:2025E000E40500698047032084F81201002010BD10B50400042084F81201D4F8E405C068CA
:202600008047002010BD10B50400D4F8E005C069002804D02000D4F8E015C9698847002065
:2026200010BD38B504000D002900C9B22000D4F8E02512689047D4F8E40580688047002065
:2026400032BD38B504000D002900C9B22000D4F8E02552689047002032BD10B5040020006F
:20266000D4F8E015096A8847002010BD10B504002000D4F8E015496A8847002010BD70479A
:20268000C0B2002802D0012801D001E000E0FFE770477047704770477047704770B50400BA
:2026A0000D000223D4F8EC05B0F8392081212000FFF75FFD0223D4F8EC05B0F8402001210A
:2026C0002000FFF756FD0323082282212000FFF750FDDFF820030600022030710020707177
:2026E000C54800688047D4F8EC05B0F84030C34A01212000FFF7A0FD002070BD38B50400A9
:202700000D0081212000FFF772FD01212000FFF76EFD82212000FFF76AFDB7484068804754
:20272000002032BDF8B504000D00287810F06000C0B200282DD0202825D1E88800281AD075
:20274000287800060BD5EA88AD496878AA4B9B689847EA88AA492000FFF748FC11E0687844
:20276000A8490860E888A8490860EA88A4492000FFF763FC05E00022002168789E4B9B686F
:202780009847002035E029002000FFF7E7FB02202FE06878062804D00A2817D00B281BD0BA
:2027A00026E0688880B2000AC0B2212807D197480700E8883B2801D33A2600E0EE883200DF
:2027C00092B239002000FFF711FC11E0012290492000FFF70BFC0BE06888C0B2012803D204
:2027E000A8788B49086003E029002000FFF7B6FB0020F2BD10B5040082480068FF280AD0DF
:20280000814802687E497F4800687B4B9B6898477C48FF210160002010BDF8B504000D00F7
:202820007C480078012844D17B480068002803D17848002101703CE0D4F8EC05B0F83900EB
:202840007549096888421BD2744800680600D4F8EC05B0F83900070070480068D4F8EC15D6
:20286000B1F8391010FA81F06C4908606A480068D4F8EC15B1F83910401A674908600FE094
:2028800066480068060064480068070063480068614909680818614908605F480021016078
:2028A000BFB23B00B6B25E48321881212000FFF7F6FC0020F2BD70B504000D00EDB228207E
:2028C00000FB0540D0F888030600B6B231004B48494A12699047D4F8EC05B0F84030474AE8
:2028E00001212000FFF7A8FC002070BD10B504004C480068411C4B4A1160052805D14948F3
:2029000000210160200000F002F8002010BD70B5040040480078012865D040480068B0F522
:20292000006F02D13D48002101603C4800683E490968884203D137480021017053E03A4806
:20294000006836490968884206D234480068D0F500603149086006E0334800682F490968E0
:20296000401A2D490860D4F8EC05B0F839002A49096888421BD2294800680500D4F8EC054B
:20298000B0F83900060025480068D4F8EC15B1F8391010FA81F0214908601F480068D4F8D4
:2029A000EC15B1F83910401A1B4908600FE01B48006805001848006806001848006816494A
:2029C0000968081815490860134800210160114801210170B6B23300ADB211482A188121A0
:2029E0002000FFF75CFC70BD0200432008800F4870470000E8000020D4000020240F0020F2
:202A0000980F002028010020B40F002012000020A40F0020CA0F0020B00F0020AC0F00200B
:202A200034010020B80F0020A80F00200000002080B54E48006850F001004C4908604C485E
:202A400000210160494800684A4908404749086049484A4901604548006830F4802043495E
:202A6000086047480021016000F005F845485FF00061016001BD82B0002001900020009001
:202A80003A48006850F48030384908603748006810F4003000900198401C0190009800287E
:202AA00003D10198B0F5A06FF0D130480068800302D50120009001E00020009000980128F7
:202AC0003ED13148006850F080502F4908602F48006850F480402D4908602548244909680A
:202AE00001602348006850F40040214908602048006850F4A0501E4908601F482449016044
:202B00001A48006850F0807018490860174800688001FBD51F4840F20561016014480068B6
:202B200080088000124908601148006850F002000F4908600E48006810F00C000828F9D143
:202B40000B48006830F40000094908601248134901600648006850F08060044908600348EF
:202B600000680001FBD502B0704700000038024008380240FFFFF6FE0438024010300024E3
:202B80000C38024008ED00E0403802400070004008544007003C02408438024000300050D1
:202BA0001CB504000121E4B2414850F82400FEF7DFF9E4B23F4830F81400009001208DF837
:202BC000040000208DF8060001208DF8070002208DF8050000A9E4B2374850F82400FEF7CE
:202BE00015FA13BDC0B2344951F82010C0B2314A32F810200A837047C0B22F4951F82010A0
:202C0000C0B22C4A32F810204A83704730B585B004000D000121E4B2284850F82400FEF73A
:202C2000A7F901214FF48040FEF7C0F900208DF8100000208DF81300E4B2214830F8140079
:202C4000039003A9E4B21F4850F82400FEF7DEF9EDB2012D29D1E4B21B48215CE4B21B48CA
:202C6000205C00F039F8E4B2194830F81400019000208DF8080008208DF8090001208DF8EA
:202C80000A0001A8FEF744FAE4B21248205C8DF800000F208DF801000F208DF802000120D1
:202CA0008DF8030000A8FEF78AFA05B030BD000044310008AC310008FC000020B43100085E
:202CC000EE300008240100201B3100081A3100080E3100082433000830B400220F2311F003
:202CE0000304E4B2A400A3401A00C9B28B100E4C54F823309343C9B28C100B4D45F82430B1
:202D0000C9B28B10084C54F82330C0B211F00304E4B2A40010FA04F42343C9B28C10024D28
:202D200045F8243030BC70470838014040B2002808D540B210F00F022D4BD2180B0102F87C
:202D4000043C03E040B22B4A0B018354704710B50400B4F1807F01D3012010E02002000AD1
:202D6000401E254908600F215FF0FF30FFF7DEFF224800210160224807210160002010BDD2
:202D800000B585B001210020FFF740FF0020FFF707FF0120FFF704FF0220FFF701FF032061
:202DA000FFF7FEFE01A8FEF763F802984FF47A71B0FBF1F0FFF7CBFF1248002101701248CE
:202DC0000021017011480090114B124A01211248FFF7F1FA0B4801210170FEE70F480068D9
:202DE000002804D00D480068401E0C490860704718ED00E000E400E014E000E018E000E0F3
:202E000010E000E0C80F0020C90F0020B8000020440000209C00002034090020A00F0020CF
:202E20000200122008802E4870470200042008802C48704738B504000D00E4B2002C05D13A
:202E40002A0029492948FFF7A4F804E02A0026492748FFF79EF8244832BD38B504000D0002
:202E60002A0021492348FFF794F81F4832BD38B504000D00E4B2002C05D12A001A491E48F2
:202E8000FFF787F804E02A0017491C48FFF781F8154832BD38B504000D00E4B2002C05D19A
:202EA0002A0011491648FFF774F804E02A000E491348FFF76EF80C4832BD38B504000D0071
:202EC000E4B2002C05D12A0007490E48FFF761F804E02A0004490B48FFF75BF8024832BD0B
:202EE000E800002030010020640F0020683000088C300008303100085431000864310008EF
:202F00009431000874310008002070470020704703001800002810D001280FD002280ED056
:202F200003280DD004280CD020280BD021280AD0222809D0232808D008E007E006E005E05B
:202F400004E003E002E001E000E0FFE70020704730B40200002003008B4213D2985C0B4C44
:202F600024680B4D605509480068401C074C206006480068B0F5006F02D10448002404605F
:202F80005B1CE9E7002030BC70470000A80F00203401002070B504000D0000200600AE42AF
:202FA00014D2305D612802D0305D412803D10320FFF718FE08E0305D732802D0305D532860
:202FC00002D10320FFF718FE761CE8E7002070BD7047FEE7FEE7FEE7FEE7704770477047D1
:202FE00080B5FFF7FBFE01BD80B50120FEF7D4F805210F48FFF7ACFF01BD80B50D48807A78
:2030000000280AD00C48006830F006000A490860FFF70EFD0748FDF77CFE5FF48020FEF76B
:20302000BBF801BD80B50348FEF708F901BD00001C0100203409002010ED00E010B508495E
:2030400079441C31074C7C441A34A14206D0081D0A68511888470146A142F8D110BD00BFFE
:20306000500000007000000053544D3332205669727475616C20436F6D506F727420696E55
:20308000204853206D6F64650000000053544D3332205669727475616C20436F6D506F72E0
:2030A0007420696E204653204D6F6465000000005BE8FFFF980E000034010020000000000B
:2030C0007FDCFFFF340100006002000000000020000000004EF68851CEF20001086840F45E
:2030E000700008604FF00070E1EE100A7047010000F009F8002801D0FFF7A0FF0020FFF713
:203100003FFE00F002F80120704700F001B801000746384600F002F8FBE7000080B5C04634
:20312000C046024A11001820ABBEFBE72600020053544D6963726F656C656374726F6E691B
:20314000637300000800000008000000080000000800000030303030303030303035304222
:20316000000000003030303030303030303530430000000056435020496E746572666163C2
:20318000650000000148804701480047312A0008A131000856435020436F6E66696700008E
:2031A000C046C046FFF796FFFFF7A2FF001000200040008001000000FFF70ABFFFF709BF73
:2031C000FFF708BFFFF707BFFFF706BFFFF705BFFFF704BFFFF703BFFFF702BFFFF7FEBF26
:2031E000FFF7FEBFFFF7FEBFFFF7FEBFFFF7FEBFFFF7FEBFFFF7F8BEFFF7FEBFFFF7FEBF3E
:20320000FFF7FEBFFFF7FEBFFFF7FEBFFFF7FEBFFFF7FEBFFFF7FEBFFFF7FEBFFFF7FEBF16
:20322000FFF7FEBFFFF7FEBFFFF7FEBFFFF7FEBFFFF7FEBFFFF7FEBFFFF7FEBFFFF7FEBFF6
:20324000FFF7FEBFFFF7FEBFFFF7FEBFFFF7FEBFFFF7FEBFFFF7FEBFFFF7FEBFFFF7FEBFD6
:20326000FFF7FEBFFFF7FEBFFFF7FEBFFFF7FEBFFFF7FEBFFFF7FEBFFFF7FEBFFFF7FEBFB6
:20328000FFF7FEBFFFF7B9BEFFF7FEBFFFF7FEBFFFF7FEBFFFF7FEBFFFF7FEBFFFF7FEBFDC
:2032A000FFF7FEBFFFF7FEBFFFF7FEBFFFF7FEBFFFF7FEBFFFF7FEBFFFF7FEBFFFF7FEBF76
:2032C000FFF7FEBFFFF7FEBFFFF7FEBFFFF7FEBFFFF7FEBFFFF7FEBFFFF7FEBFFFF7FEBF56
:2032E000FFF7FEBFFFF7FEBFFFF79CBEFFF7FEBFFFF7FEBFFFF7FEBFFFF7FEBFFFF7FEBF99
:20330000FFF7FEBFFFF7FEBFFFF7FEBFFFF7FEBFFFF7FEBFFFF7FEBFFFF7FEBFFFF7FEBF15
:20332000FFF7FEBF0600000009024300020100C0320904000001020201000524001001053F
:2033400024010001042402020524060001070582030800FF09040100020A0000000705012C
:203360000240000007058102400000009D260008FD2600082527000800000000F5270008CE
:203380001B280008B7280008ED2800080000000000000000E929000853240008ED2400082C
:2033A0000124000807260008AB250008F1250008DB2500085B2600086D2600080000000089
:2033C00000000000212E00082B2E00085B2E0008352E00086F2E0008952E0008BB2E0008D8
:2033E0007F2600088126000893260008992600089B2600089526000897260008092F000858
:203400000D2F0008112F0008512F0008952F00081201000200000040830440570002010254
:2034200003010000000C0240000C0240000C0240000C02400000000001020304010203043C
:203440000607080948454C4C4F00000000000240FF0000007000002004030904FFFFFFFFF9
:20346000FFFFFFFFFFFFFFFFFFFFFFFFFFFFFFFFFFFFFFFFFFFFFFFFFFFFFFFFFFFFFFFF6C
:20348000FFFFFFFFFFFFFFFFFFFFFFFFFFFFFFFFFFFFFFFFFFFFFFFFFFFFFFFFFFFFFFFF4C
:2034A000FFFFFFFFFFFFFFFFFFFFFFFFFFFFFFFFFFFFFFFFFFFFFFFFFFFFFFFFFFFFFFFF2C
:2034C000FFFFFFFFFFFFFFFFFFFFFFFFFFFFFFFFFFFFFFFFFFFFFFFFFFFFFFFFFFFFFFFF0C
:020000040800F2
:00000001FF
